{
  "contractName": "TokenLockerFactory",
  "abi": [
    {
      "anonymous": false,
      "inputs": [
        {
          "indexed": true,
          "internalType": "address",
          "name": "tokenLocker",
          "type": "address"
        },
        {
          "indexed": true,
          "internalType": "address",
          "name": "creator",
          "type": "address"
        },
        {
          "indexed": false,
          "internalType": "string",
          "name": "lockerName",
          "type": "string"
        }
      ],
      "name": "TokenLockerCreated",
      "type": "event"
    },
    {
      "inputs": [
        {
          "internalType": "address",
          "name": "",
          "type": "address"
        }
      ],
      "name": "deployedTokenLockers",
      "outputs": [
        {
          "internalType": "contract TokenLocker",
          "name": "",
          "type": "address"
        }
      ],
      "stateMutability": "view",
      "type": "function",
      "constant": true
    },
    {
      "inputs": [
        {
          "internalType": "address",
          "name": "",
          "type": "address"
        }
      ],
      "name": "hasCreatorATokenLocker",
      "outputs": [
        {
          "internalType": "bool",
          "name": "",
          "type": "bool"
        }
      ],
      "stateMutability": "view",
      "type": "function",
      "constant": true
    },
    {
      "inputs": [
        {
          "internalType": "address",
          "name": "creator",
          "type": "address"
        },
        {
          "internalType": "string",
          "name": "name",
          "type": "string"
        }
      ],
      "name": "createTokenLocker",
      "outputs": [],
      "stateMutability": "nonpayable",
      "type": "function"
    },
    {
      "inputs": [
        {
          "internalType": "address",
          "name": "creator",
          "type": "address"
        }
      ],
      "name": "getDeployedTokenLocker",
      "outputs": [
        {
          "internalType": "address",
          "name": "",
          "type": "address"
        }
      ],
      "stateMutability": "view",
      "type": "function",
      "constant": true
    }
  ],
  "bytecode": "0x608060405234801561001057600080fd5b50612d46806100206000396000f3fe60806040523480156200001157600080fd5b5060043610620000525760003560e01c8063656c9cca1462000057578063df573ea7146200008d578063f5bb5b8714620000c3578063fdcc4bd214620000f9575b600080fd5b6200007560048036038101906200006f91906200046a565b62000119565b604051620000849190620004ad565b60405180910390f35b620000ab6004803603810190620000a591906200046a565b62000181565b604051620000ba919062000535565b60405180910390f35b620000e16004803603810190620000db91906200046a565b620001b4565b604051620000f091906200056f565b60405180910390f35b620001176004803603810190620001119190620006ee565b620001d4565b005b60008060008373ffffffffffffffffffffffffffffffffffffffff1673ffffffffffffffffffffffffffffffffffffffff16815260200190815260200160002060009054906101000a900473ffffffffffffffffffffffffffffffffffffffff169050919050565b60006020528060005260406000206000915054906101000a900473ffffffffffffffffffffffffffffffffffffffff1681565b60016020528060005260406000206000915054906101000a900460ff1681565b600160008373ffffffffffffffffffffffffffffffffffffffff1673ffffffffffffffffffffffffffffffffffffffff16815260200190815260200160002060009054906101000a900460ff161562000264576040517f08c379a00000000000000000000000000000000000000000000000000000000081526004016200025b9062000801565b60405180910390fd5b600082826040516200027690620003e3565b620002839291906200089b565b604051809103906000f080158015620002a0573d6000803e3d6000fd5b509050806000808573ffffffffffffffffffffffffffffffffffffffff1673ffffffffffffffffffffffffffffffffffffffff16815260200190815260200160002060006101000a81548173ffffffffffffffffffffffffffffffffffffffff021916908373ffffffffffffffffffffffffffffffffffffffff16021790555060018060008573ffffffffffffffffffffffffffffffffffffffff1673ffffffffffffffffffffffffffffffffffffffff16815260200190815260200160002060006101000a81548160ff0219169083151502179055508273ffffffffffffffffffffffffffffffffffffffff168173ffffffffffffffffffffffffffffffffffffffff167ff10bad648d65a191bfb653141139d47499844ff40f3fa960b682a532d8399d3584604051620003d69190620008cf565b60405180910390a3505050565b61241d80620008f483390190565b6000604051905090565b600080fd5b600080fd5b600073ffffffffffffffffffffffffffffffffffffffff82169050919050565b6000620004328262000405565b9050919050565b620004448162000425565b81146200045057600080fd5b50565b600081359050620004648162000439565b92915050565b600060208284031215620004835762000482620003fb565b5b6000620004938482850162000453565b91505092915050565b620004a78162000425565b82525050565b6000602082019050620004c460008301846200049c565b92915050565b6000819050919050565b6000620004f5620004ef620004e98462000405565b620004ca565b62000405565b9050919050565b60006200050982620004d4565b9050919050565b60006200051d82620004fc565b9050919050565b6200052f8162000510565b82525050565b60006020820190506200054c600083018462000524565b92915050565b60008115159050919050565b620005698162000552565b82525050565b60006020820190506200058660008301846200055e565b92915050565b600080fd5b600080fd5b6000601f19601f8301169050919050565b7f4e487b7100000000000000000000000000000000000000000000000000000000600052604160045260246000fd5b620005e18262000596565b810181811067ffffffffffffffff82111715620006035762000602620005a7565b5b80604052505050565b600062000618620003f1565b9050620006268282620005d6565b919050565b600067ffffffffffffffff821115620006495762000648620005a7565b5b620006548262000596565b9050602081019050919050565b82818337600083830152505050565b60006200068762000681846200062b565b6200060c565b905082815260208101848484011115620006a657620006a562000591565b5b620006b384828562000661565b509392505050565b600082601f830112620006d357620006d26200058c565b5b8135620006e584826020860162000670565b91505092915050565b60008060408385031215620007085762000707620003fb565b5b6000620007188582860162000453565b925050602083013567ffffffffffffffff8111156200073c576200073b62000400565b5b6200074a85828601620006bb565b9150509250929050565b600082825260208201905092915050565b7f54686973206d616e6167657220686173206120746f6b656e206c6f636b65722060008201527f616c72656164792120506c6561736520636f6e7369646572206c6f636b696e6760208201527f206d6f726520746f6b656e7320796f757220746f6b656e206c6f636b65722e00604082015250565b6000620007e9605f8362000754565b9150620007f68262000765565b606082019050919050565b600060208201905081810360008301526200081c81620007da565b9050919050565b600081519050919050565b60005b838110156200084e57808201518184015260208101905062000831565b60008484015250505050565b6000620008678262000823565b62000873818562000754565b9350620008858185602086016200082e565b620008908162000596565b840191505092915050565b6000604082019050620008b260008301856200049c565b8181036020830152620008c681846200085a565b90509392505050565b60006020820190508181036000830152620008eb81846200085a565b90509291505056fe60806040523480156200001157600080fd5b506040516200241d3803806200241d833981810160405281019062000037919062000289565b816000806101000a81548173ffffffffffffffffffffffffffffffffffffffff021916908373ffffffffffffffffffffffffffffffffffffffff16021790555080600190816200008891906200053a565b50505062000621565b6000604051905090565b600080fd5b600080fd5b600073ffffffffffffffffffffffffffffffffffffffff82169050919050565b6000620000d282620000a5565b9050919050565b620000e481620000c5565b8114620000f057600080fd5b50565b6000815190506200010481620000d9565b92915050565b600080fd5b600080fd5b6000601f19601f8301169050919050565b7f4e487b7100000000000000000000000000000000000000000000000000000000600052604160045260246000fd5b6200015f8262000114565b810181811067ffffffffffffffff8211171562000181576200018062000125565b5b80604052505050565b60006200019662000091565b9050620001a4828262000154565b919050565b600067ffffffffffffffff821115620001c757620001c662000125565b5b620001d28262000114565b9050602081019050919050565b60005b83811015620001ff578082015181840152602081019050620001e2565b60008484015250505050565b6000620002226200021c84620001a9565b6200018a565b9050828152602081018484840111156200024157620002406200010f565b5b6200024e848285620001df565b509392505050565b600082601f8301126200026e576200026d6200010a565b5b8151620002808482602086016200020b565b91505092915050565b60008060408385031215620002a357620002a26200009b565b5b6000620002b385828601620000f3565b925050602083015167ffffffffffffffff811115620002d757620002d6620000a0565b5b620002e58582860162000256565b9150509250929050565b600081519050919050565b7f4e487b7100000000000000000000000000000000000000000000000000000000600052602260045260246000fd5b600060028204905060018216806200034257607f821691505b602082108103620003585762000357620002fa565b5b50919050565b60008190508160005260206000209050919050565b60006020601f8301049050919050565b600082821b905092915050565b600060088302620003c27fffffffffffffffffffffffffffffffffffffffffffffffffffffffffffffffff8262000383565b620003ce868362000383565b95508019841693508086168417925050509392505050565b6000819050919050565b6000819050919050565b60006200041b620004156200040f84620003e6565b620003f0565b620003e6565b9050919050565b6000819050919050565b6200043783620003fa565b6200044f620004468262000422565b84845462000390565b825550505050565b600090565b6200046662000457565b620004738184846200042c565b505050565b5b818110156200049b576200048f6000826200045c565b60018101905062000479565b5050565b601f821115620004ea57620004b4816200035e565b620004bf8462000373565b81016020851015620004cf578190505b620004e7620004de8562000373565b83018262000478565b50505b505050565b600082821c905092915050565b60006200050f60001984600802620004ef565b1980831691505092915050565b60006200052a8383620004fc565b9150826002028217905092915050565b6200054582620002ef565b67ffffffffffffffff81111562000561576200056062000125565b5b6200056d825462000329565b6200057a8282856200049f565b600060209050601f831160018114620005b257600084156200059d578287015190505b620005a985826200051c565b86555062000619565b601f198416620005c2866200035e565b60005b82811015620005ec57848901518255600182019150602085019450602081019050620005c5565b868310156200060c578489015162000608601f891682620004fc565b8355505b6001600288020188555050505b505050505050565b611dec80620006316000396000f3fe608060405234801561001057600080fd5b50600436106100885760003560e01c806377b76ec31161005b57806377b76ec3146101155780637b23a9a2146101455780638fa633a414610161578063dcec32941461017f57610088565b80631a197a261461008d5780633317bbcc146100bd57806337bdc99b146100db578063481c6a75146100f7575b600080fd5b6100a760048036038101906100a29190610edb565b6101b5565b6040516100b49190610f21565b60405180910390f35b6100c561023f565b6040516100d291906111d4565b60405180910390f35b6100f560048036038101906100f09190611222565b610415565b005b6100ff610742565b60405161010c919061125e565b60405180910390f35b61012f600480360381019061012a9190611279565b610766565b60405161013c9190610f21565b60405180910390f35b61015f600480360381019061015a919061141a565b6107ef565b005b610169610cb4565b60405161017691906114fb565b60405180910390f35b61019960048036038101906101949190611222565b610d42565b6040516101ac979695949392919061154a565b60405180910390f35b6000808290508073ffffffffffffffffffffffffffffffffffffffff1663dd62ed3e33306040518363ffffffff1660e01b81526004016101f69291906115c0565b602060405180830381865afa158015610213573d6000803e3d6000fd5b505050506040513d601f19601f8201168201806040525081019061023791906115fe565b915050919050565b60606002805480602002602001604051908101604052809291908181526020016000905b8282101561040c57838290600052602060002090600702016040518060e00160405290816000820160009054906101000a900473ffffffffffffffffffffffffffffffffffffffff1673ffffffffffffffffffffffffffffffffffffffff1673ffffffffffffffffffffffffffffffffffffffff1681526020016001820160009054906101000a900473ffffffffffffffffffffffffffffffffffffffff1673ffffffffffffffffffffffffffffffffffffffff1673ffffffffffffffffffffffffffffffffffffffff1681526020016002820154815260200160038201548152602001600482015481526020016005820180546103609061165a565b80601f016020809104026020016040519081016040528092919081815260200182805461038c9061165a565b80156103d95780601f106103ae576101008083540402835291602001916103d9565b820191906000526020600020905b8154815290600101906020018083116103bc57829003601f168201915b505050505081526020016006820160009054906101000a900460ff16151515158152505081526020019060010190610263565b50505050905090565b60008054906101000a900473ffffffffffffffffffffffffffffffffffffffff1673ffffffffffffffffffffffffffffffffffffffff163373ffffffffffffffffffffffffffffffffffffffff161461046d57600080fd5b6000600282815481106104835761048261168b565b5b9060005260206000209060070201905080600401544210156104da576040517f08c379a00000000000000000000000000000000000000000000000000000000081526004016104d19061172c565b60405180910390fd5b60008160000160009054906101000a900473ffffffffffffffffffffffffffffffffffffffff1673ffffffffffffffffffffffffffffffffffffffff166370a08231306040518263ffffffff1660e01b8152600401610539919061125e565b602060405180830381865afa158015610556573d6000803e3d6000fd5b505050506040513d601f19601f8201168201806040525081019061057a91906115fe565b9050600081116105bf576040517f08c379a00000000000000000000000000000000000000000000000000000000081526004016105b690611798565b60405180910390fd5b8160000160009054906101000a900473ffffffffffffffffffffffffffffffffffffffff1673ffffffffffffffffffffffffffffffffffffffff1663a9059cbb8360010160009054906101000a900473ffffffffffffffffffffffffffffffffffffffff16836040518363ffffffff1660e01b81526004016106429291906117d9565b6020604051808303816000875af1158015610661573d6000803e3d6000fd5b505050506040513d601f19601f82011682018060405250810190610685919061182e565b5060018260060160006101000a81548160ff0219169083151502179055508160010160009054906101000a900473ffffffffffffffffffffffffffffffffffffffff1673ffffffffffffffffffffffffffffffffffffffff163373ffffffffffffffffffffffffffffffffffffffff167f996053503a884bfbb5ac64648424e9696a5e7a5a65667fa9d5126e1f7100b88d83856005018660040154876003015460405161073594939291906118f4565b60405180910390a3505050565b60008054906101000a900473ffffffffffffffffffffffffffffffffffffffff1681565b6000808390508073ffffffffffffffffffffffffffffffffffffffff166370a08231846040518263ffffffff1660e01b81526004016107a5919061125e565b602060405180830381865afa1580156107c2573d6000803e3d6000fd5b505050506040513d601f19601f820116820180604052508101906107e691906115fe565b91505092915050565b60008054906101000a900473ffffffffffffffffffffffffffffffffffffffff1673ffffffffffffffffffffffffffffffffffffffff163373ffffffffffffffffffffffffffffffffffffffff161461084757600080fd5b6000831161088a576040517f08c379a00000000000000000000000000000000000000000000000000000000081526004016108819061198c565b60405180910390fd5b600085905060008173ffffffffffffffffffffffffffffffffffffffff1663dd62ed3e33306040518363ffffffff1660e01b81526004016108cc9291906115c0565b602060405180830381865afa1580156108e9573d6000803e3d6000fd5b505050506040513d601f19601f8201168201806040525081019061090d91906115fe565b905084811015610952576040517f08c379a0000000000000000000000000000000000000000000000000000000008152600401610949906119f8565b60405180910390fd5b60008273ffffffffffffffffffffffffffffffffffffffff166370a08231336040518263ffffffff1660e01b815260040161098d919061125e565b602060405180830381865afa1580156109aa573d6000803e3d6000fd5b505050506040513d601f19601f820116820180604052508101906109ce91906115fe565b905085811015610a13576040517f08c379a0000000000000000000000000000000000000000000000000000000008152600401610a0a90611a64565b60405180910390fd5b8273ffffffffffffffffffffffffffffffffffffffff166323b872dd3330896040518463ffffffff1660e01b8152600401610a5093929190611a84565b6020604051808303816000875af1158015610a6f573d6000803e3d6000fd5b505050506040513d601f19601f82011682018060405250810190610a93919061182e565b610ad2576040517f08c379a0000000000000000000000000000000000000000000000000000000008152600401610ac990611b07565b60405180910390fd5b60026040518060e001604052808573ffffffffffffffffffffffffffffffffffffffff1681526020018973ffffffffffffffffffffffffffffffffffffffff16815260200188815260200142815260200187815260200186815260200160001515815250908060018154018082558091505060019003906000526020600020906007020160009091909190915060008201518160000160006101000a81548173ffffffffffffffffffffffffffffffffffffffff021916908373ffffffffffffffffffffffffffffffffffffffff16021790555060208201518160010160006101000a81548173ffffffffffffffffffffffffffffffffffffffff021916908373ffffffffffffffffffffffffffffffffffffffff16021790555060408201518160020155606082015181600301556080820151816004015560a0820151816005019081610c209190611cb4565b5060c08201518160060160006101000a81548160ff02191690831515021790555050508673ffffffffffffffffffffffffffffffffffffffff163373ffffffffffffffffffffffffffffffffffffffff167f255e2efb6c58823c300a9a0b6b7edbddcfd2f4ab39c4e4b98544164d6a7210ad8887604051610ca2929190611d86565b60405180910390a35050505050505050565b60018054610cc19061165a565b80601f0160208091040260200160405190810160405280929190818152602001828054610ced9061165a565b8015610d3a5780601f10610d0f57610100808354040283529160200191610d3a565b820191906000526020600020905b815481529060010190602001808311610d1d57829003601f168201915b505050505081565b60028181548110610d5257600080fd5b90600052602060002090600702016000915090508060000160009054906101000a900473ffffffffffffffffffffffffffffffffffffffff16908060010160009054906101000a900473ffffffffffffffffffffffffffffffffffffffff1690806002015490806003015490806004015490806005018054610dd39061165a565b80601f0160208091040260200160405190810160405280929190818152602001828054610dff9061165a565b8015610e4c5780601f10610e2157610100808354040283529160200191610e4c565b820191906000526020600020905b815481529060010190602001808311610e2f57829003601f168201915b5050505050908060060160009054906101000a900460ff16905087565b6000604051905090565b600080fd5b600080fd5b600073ffffffffffffffffffffffffffffffffffffffff82169050919050565b6000610ea882610e7d565b9050919050565b610eb881610e9d565b8114610ec357600080fd5b50565b600081359050610ed581610eaf565b92915050565b600060208284031215610ef157610ef0610e73565b5b6000610eff84828501610ec6565b91505092915050565b6000819050919050565b610f1b81610f08565b82525050565b6000602082019050610f366000830184610f12565b92915050565b600081519050919050565b600082825260208201905092915050565b6000819050602082019050919050565b6000819050919050565b6000610f8d610f88610f8384610e7d565b610f68565b610e7d565b9050919050565b6000610f9f82610f72565b9050919050565b6000610fb182610f94565b9050919050565b610fc181610fa6565b82525050565b6000610fd282610e7d565b9050919050565b610fe281610fc7565b82525050565b610ff181610f08565b82525050565b600081519050919050565b600082825260208201905092915050565b60005b83811015611031578082015181840152602081019050611016565b60008484015250505050565b6000601f19601f8301169050919050565b600061105982610ff7565b6110638185611002565b9350611073818560208601611013565b61107c8161103d565b840191505092915050565b60008115159050919050565b61109c81611087565b82525050565b600060e0830160008301516110ba6000860182610fb8565b5060208301516110cd6020860182610fd9565b5060408301516110e06040860182610fe8565b5060608301516110f36060860182610fe8565b5060808301516111066080860182610fe8565b5060a083015184820360a086015261111e828261104e565b91505060c083015161113360c0860182611093565b508091505092915050565b600061114a83836110a2565b905092915050565b6000602082019050919050565b600061116a82610f3c565b6111748185610f47565b93508360208202850161118685610f58565b8060005b858110156111c257848403895281516111a3858261113e565b94506111ae83611152565b925060208a0199505060018101905061118a565b50829750879550505050505092915050565b600060208201905081810360008301526111ee818461115f565b905092915050565b6111ff81610f08565b811461120a57600080fd5b50565b60008135905061121c816111f6565b92915050565b60006020828403121561123857611237610e73565b5b60006112468482850161120d565b91505092915050565b61125881610e9d565b82525050565b6000602082019050611273600083018461124f565b92915050565b600080604083850312156112905761128f610e73565b5b600061129e85828601610ec6565b92505060206112af85828601610ec6565b9150509250929050565b6112c281610fc7565b81146112cd57600080fd5b50565b6000813590506112df816112b9565b92915050565b600080fd5b600080fd5b7f4e487b7100000000000000000000000000000000000000000000000000000000600052604160045260246000fd5b6113278261103d565b810181811067ffffffffffffffff82111715611346576113456112ef565b5b80604052505050565b6000611359610e69565b9050611365828261131e565b919050565b600067ffffffffffffffff821115611385576113846112ef565b5b61138e8261103d565b9050602081019050919050565b82818337600083830152505050565b60006113bd6113b88461136a565b61134f565b9050828152602081018484840111156113d9576113d86112ea565b5b6113e484828561139b565b509392505050565b600082601f830112611401576114006112e5565b5b81356114118482602086016113aa565b91505092915050565b600080600080600060a0868803121561143657611435610e73565b5b600061144488828901610ec6565b9550506020611455888289016112d0565b94505060406114668882890161120d565b93505060606114778882890161120d565b925050608086013567ffffffffffffffff81111561149857611497610e78565b5b6114a4888289016113ec565b9150509295509295909350565b600082825260208201905092915050565b60006114cd82610ff7565b6114d781856114b1565b93506114e7818560208601611013565b6114f08161103d565b840191505092915050565b6000602082019050818103600083015261151581846114c2565b905092915050565b61152681610fa6565b82525050565b61153581610fc7565b82525050565b61154481611087565b82525050565b600060e08201905061155f600083018a61151d565b61156c602083018961152c565b6115796040830188610f12565b6115866060830187610f12565b6115936080830186610f12565b81810360a08301526115a581856114c2565b90506115b460c083018461153b565b98975050505050505050565b60006040820190506115d5600083018561124f565b6115e2602083018461124f565b9392505050565b6000815190506115f8816111f6565b92915050565b60006020828403121561161457611613610e73565b5b6000611622848285016115e9565b91505092915050565b7f4e487b7100000000000000000000000000000000000000000000000000000000600052602260045260246000fd5b6000600282049050600182168061167257607f821691505b6020821081036116855761168461162b565b5b50919050565b7f4e487b7100000000000000000000000000000000000000000000000000000000600052603260045260246000fd5b7f52656c656173652074696d6520686173206e6f7420617272697665642079657460008201527f2100000000000000000000000000000000000000000000000000000000000000602082015250565b60006117166021836114b1565b9150611721826116ba565b604082019050919050565b6000602082019050818103600083015261174581611709565b9050919050565b7f4e6f20746f6b656e7320746f2072656c65617365000000000000000000000000600082015250565b60006117826014836114b1565b915061178d8261174c565b602082019050919050565b600060208201905081810360008301526117b181611775565b9050919050565b60006117c382610f94565b9050919050565b6117d3816117b8565b82525050565b60006040820190506117ee60008301856117ca565b6117fb6020830184610f12565b9392505050565b61180b81611087565b811461181657600080fd5b50565b60008151905061182881611802565b92915050565b60006020828403121561184457611843610e73565b5b600061185284828501611819565b91505092915050565b60008190508160005260206000209050919050565b6000815461187d8161165a565b61188781866114b1565b945060018216600081146118a257600181146118b8576118eb565b60ff1983168652811515602002860193506118eb565b6118c18561185b565b60005b838110156118e3578154818901526001820191506020810190506118c4565b808801955050505b50505092915050565b60006080820190506119096000830187610f12565b818103602083015261191b8186611870565b905061192a6040830185610f12565b6119376060830184610f12565b95945050505050565b7f496e76616c696420616d6f756e74210000000000000000000000000000000000600082015250565b6000611976600f836114b1565b915061198182611940565b602082019050919050565b600060208201905081810360008301526119a581611969565b9050919050565b7f546f6b656e20616c6c6f77616e636520746f6f206c6f77000000000000000000600082015250565b60006119e26017836114b1565b91506119ed826119ac565b602082019050919050565b60006020820190508181036000830152611a11816119d5565b9050919050565b7f496e73756666696369656e742062616c616e6365000000000000000000000000600082015250565b6000611a4e6014836114b1565b9150611a5982611a18565b602082019050919050565b60006020820190508181036000830152611a7d81611a41565b9050919050565b6000606082019050611a99600083018661124f565b611aa6602083018561124f565b611ab36040830184610f12565b949350505050565b7f546f6b656e207472616e73616374696f6e206661696c65642100000000000000600082015250565b6000611af16019836114b1565b9150611afc82611abb565b602082019050919050565b60006020820190508181036000830152611b2081611ae4565b9050919050565b60006020601f8301049050919050565b600082821b905092915050565b600060088302611b747fffffffffffffffffffffffffffffffffffffffffffffffffffffffffffffffff82611b37565b611b7e8683611b37565b95508019841693508086168417925050509392505050565b6000611bb1611bac611ba784610f08565b610f68565b610f08565b9050919050565b6000819050919050565b611bcb83611b96565b611bdf611bd782611bb8565b848454611b44565b825550505050565b600090565b611bf4611be7565b611bff818484611bc2565b505050565b5b81811015611c2357611c18600082611bec565b600181019050611c05565b5050565b601f821115611c6857611c398161185b565b611c4284611b27565b81016020851015611c51578190505b611c65611c5d85611b27565b830182611c04565b50505b505050565b600082821c905092915050565b6000611c8b60001984600802611c6d565b1980831691505092915050565b6000611ca48383611c7a565b9150826002028217905092915050565b611cbd82610ff7565b67ffffffffffffffff811115611cd657611cd56112ef565b5b611ce0825461165a565b611ceb828285611c27565b600060209050601f831160018114611d1e5760008415611d0c578287015190505b611d168582611c98565b865550611d7e565b601f198416611d2c8661185b565b60005b82811015611d5457848901518255600182019150602085019450602081019050611d2f565b86831015611d715784890151611d6d601f891682611c7a565b8355505b6001600288020188555050505b505050505050565b6000604082019050611d9b6000830185610f12565b8181036020830152611dad81846114c2565b9050939250505056fea2646970667358221220a6bd8a77bb599482534a4ffda4fe163d2ff7953999717f262afbdfed450306fb64736f6c63430008130033a26469706673582212203d418ac05fdda35a5f05fe944b4d9802f63a60680d29f41992ec681ed073565c64736f6c63430008130033",
  "immutableReferences": {},
  "source": "// SPDX-License-Identifier: MIT\r\npragma solidity >=0.4.25 <0.9.0;\r\n\r\n// OpenZeppelin Contracts (last updated v5.0.0) (token/ERC20/IERC20.sol)\r\nimport \"@openzeppelin/contracts/token/ERC20/ERC20.sol\";\r\n\r\ncontract TokenLockerFactory {\r\n    // address[] public deployedTokenLoackers;\r\n    mapping(address => TokenLocker) public deployedTokenLockers;\r\n    mapping(address => bool) public hasCreatorATokenLocker;\r\n \r\n    // Event declaration for TokenLocker creation\r\n    event TokenLockerCreated(\r\n        address indexed tokenLocker,\r\n        address indexed creator,\r\n        string lockerName\r\n    );\r\n\r\n    // Function to create a new TokenLocker contract\r\n    function createTokenLocker(address creator, string memory name) external {\r\n        require(\r\n            !hasCreatorATokenLocker[creator],\r\n            \"This manager has a token locker already! Please consider locking more tokens your token locker.\"\r\n        );\r\n        // Deploy a new instance of TokenLocker contract\r\n        TokenLocker newTokenLocker = new TokenLocker(creator, name);\r\n        deployedTokenLockers[creator] = newTokenLocker;\r\n\r\n        hasCreatorATokenLocker[creator] = true; // Same manager shouldn't create another Token locker\r\n\r\n        // Emit an event to log the creation of a new TokenLocker contract\r\n        emit TokenLockerCreated(address(newTokenLocker), creator, name);\r\n    }\r\n\r\n    function getDeployedTokenLocker(\r\n        address creator\r\n    ) public view returns (address) {\r\n        return address(deployedTokenLockers[creator]);\r\n    }\r\n}\r\n\r\ncontract TokenLocker {\r\n    struct LockedToken {\r\n        IERC20 token;\r\n        address payable beneficiary;\r\n        uint256 amount;\r\n        uint256 lockdownDate;\r\n        uint256 lockdownPeriod;\r\n        string title;\r\n        bool isReleased;\r\n    }\r\n\r\n    address public manager;\r\n    string public lockerName;\r\n    LockedToken[] public lockedTokens;\r\n\r\n    event TokensDeposited(\r\n        address indexed depositor,\r\n        address indexed beneficiary,\r\n        uint256 amount,\r\n        string title\r\n    );\r\n\r\n    event TokensReleased(\r\n        address indexed depositor,\r\n        address indexed beneficiary,\r\n        uint256 amount,\r\n        string title,\r\n        uint period,\r\n        uint lockdownDate\r\n    );\r\n\r\n    event TokenTransferApproved(\r\n        bool isApproved,\r\n        address spender,\r\n        uint256 amount\r\n    );\r\n\r\n    modifier restricted() {\r\n        require(msg.sender == manager);\r\n        _;\r\n    }\r\n\r\n    constructor(address creator, string memory name) {\r\n        manager = creator;\r\n        lockerName = name;\r\n    }\r\n\r\n    // This doesn't show allowance after approval ???\r\n    function checkAllowance(\r\n        address tokenAddress\r\n    ) public view returns (uint256) {\r\n        IERC20 token = IERC20(tokenAddress);\r\n        return token.allowance(address(msg.sender), address(this));\r\n    }\r\n\r\n    // This works well\r\n    function checkBalance(\r\n        address tokenAddress,\r\n        address account\r\n    ) public view returns (uint256) {\r\n        IERC20 token = IERC20(tokenAddress);\r\n        return token.balanceOf(account);\r\n    }\r\n\r\n    function deposit(\r\n        address tokenAddress,\r\n        address payable beneficiary,\r\n        uint amount,\r\n        uint lockdownPeriod,\r\n        string memory title\r\n    ) public restricted {\r\n        require(amount > 0, \"Invalid amount!\");\r\n\r\n        IERC20 token = IERC20(tokenAddress);\r\n\r\n        // Check allowance first\r\n        uint allowance = token.allowance(address(msg.sender), address(this));\r\n        require(allowance >= amount, \"Token allowance too low\");\r\n\r\n        // Check user balance\r\n        uint userBalance = token.balanceOf(address(msg.sender));\r\n        require(userBalance >= amount, \"Insufficient balance\");\r\n\r\n        // Transfer tokens after approval and balance checks\r\n        require(\r\n            token.transferFrom(address(msg.sender), address(this), amount),\r\n            \"Token transaction failed!\"\r\n        ); // Tries to deposit\r\n\r\n        // If deposit is successful...\r\n\r\n        // Lock down the tokens\r\n        lockedTokens.push(\r\n            LockedToken({\r\n                token: token,\r\n                beneficiary: beneficiary,\r\n                amount: amount,\r\n                lockdownDate: block.timestamp,\r\n                lockdownPeriod: lockdownPeriod,\r\n                title: title,\r\n                isReleased: false\r\n            })\r\n        );\r\n\r\n        emit TokensDeposited(msg.sender, beneficiary, amount, title); // Emit event\r\n    }\r\n\r\n    function release(uint index) public restricted {\r\n        LockedToken storage lockedToken = lockedTokens[index];\r\n\r\n        require(\r\n            block.timestamp >= lockedToken.lockdownPeriod,\r\n            \"Release time has not arrived yet!\"\r\n        );\r\n        uint256 amount = lockedToken.token.balanceOf(address(this));\r\n        require(amount > 0, \"No tokens to release\");\r\n        lockedToken.token.transfer(lockedToken.beneficiary, amount);\r\n\r\n        // Update the status of the locked token\r\n        lockedToken.isReleased = true;\r\n\r\n        emit TokensReleased(\r\n            msg.sender,\r\n            lockedToken.beneficiary,\r\n            amount,\r\n            lockedToken.title,\r\n            lockedToken.lockdownPeriod,\r\n            lockedToken.lockdownDate\r\n        );\r\n    }\r\n\r\n    function getLockedTokens() public view returns (LockedToken[] memory) {\r\n        return lockedTokens;\r\n    }\r\n}\r\n",
  "sourcePath": "c:\\Users\\SOFT\\SOFT_DEV\\WEB3-PROJECTS\\tokenlocker\\tokenlocker\\contracts\\TokenLocker.sol",
  "compiler": {
    "name": "solc",
    "version": "0.8.19+commit.7dd6d404.Emscripten.clang"
  },
  "schemaVersion": "3.4.16",
  "updatedAt": "2024-01-10T21:54:17.191Z",
  "networkType": "ethereum",
  "devdoc": {
    "kind": "dev",
    "methods": {},
    "version": 1
  },
  "userdoc": {
    "kind": "user",
    "methods": {},
    "version": 1
  }
}