{
  "contractName": "TokenLockerFactory",
  "abi": [
    {
      "anonymous": false,
      "inputs": [
        {
          "indexed": true,
          "internalType": "address",
          "name": "tokenLocker",
          "type": "address"
        },
        {
          "indexed": true,
          "internalType": "address",
          "name": "creator",
          "type": "address"
        },
        {
          "indexed": false,
          "internalType": "string",
          "name": "lockerName",
          "type": "string"
        }
      ],
      "name": "TokenLockerCreated",
      "type": "event"
    },
    {
      "inputs": [
        {
          "internalType": "address",
          "name": "",
          "type": "address"
        }
      ],
      "name": "deployedTokenLockers",
      "outputs": [
        {
          "internalType": "contract TokenLocker",
          "name": "",
          "type": "address"
        }
      ],
      "stateMutability": "view",
      "type": "function",
      "constant": true
    },
    {
      "inputs": [
        {
          "internalType": "address",
          "name": "",
          "type": "address"
        }
      ],
      "name": "hasCreatorATokenLocker",
      "outputs": [
        {
          "internalType": "bool",
          "name": "",
          "type": "bool"
        }
      ],
      "stateMutability": "view",
      "type": "function",
      "constant": true
    },
    {
      "inputs": [
        {
          "internalType": "address",
          "name": "creator",
          "type": "address"
        },
        {
          "internalType": "string",
          "name": "name",
          "type": "string"
        }
      ],
      "name": "createTokenLocker",
      "outputs": [],
      "stateMutability": "nonpayable",
      "type": "function"
    },
    {
      "inputs": [
        {
          "internalType": "address",
          "name": "creator",
          "type": "address"
        }
      ],
      "name": "getDeployedTokenLocker",
      "outputs": [
        {
          "internalType": "address",
          "name": "",
          "type": "address"
        }
      ],
      "stateMutability": "view",
      "type": "function",
      "constant": true
    }
  ],
  "bytecode": "0x608060405234801561001057600080fd5b50612dad806100206000396000f3fe60806040523480156200001157600080fd5b5060043610620000525760003560e01c8063656c9cca1462000057578063df573ea7146200008d578063f5bb5b8714620000c3578063fdcc4bd214620000f9575b600080fd5b6200007560048036038101906200006f91906200046a565b62000119565b604051620000849190620004ad565b60405180910390f35b620000ab6004803603810190620000a591906200046a565b62000181565b604051620000ba919062000535565b60405180910390f35b620000e16004803603810190620000db91906200046a565b620001b4565b604051620000f091906200056f565b60405180910390f35b620001176004803603810190620001119190620006ee565b620001d4565b005b60008060008373ffffffffffffffffffffffffffffffffffffffff1673ffffffffffffffffffffffffffffffffffffffff16815260200190815260200160002060009054906101000a900473ffffffffffffffffffffffffffffffffffffffff169050919050565b60006020528060005260406000206000915054906101000a900473ffffffffffffffffffffffffffffffffffffffff1681565b60016020528060005260406000206000915054906101000a900460ff1681565b600160008373ffffffffffffffffffffffffffffffffffffffff1673ffffffffffffffffffffffffffffffffffffffff16815260200190815260200160002060009054906101000a900460ff161562000264576040517f08c379a00000000000000000000000000000000000000000000000000000000081526004016200025b9062000801565b60405180910390fd5b600082826040516200027690620003e3565b620002839291906200089b565b604051809103906000f080158015620002a0573d6000803e3d6000fd5b509050806000808573ffffffffffffffffffffffffffffffffffffffff1673ffffffffffffffffffffffffffffffffffffffff16815260200190815260200160002060006101000a81548173ffffffffffffffffffffffffffffffffffffffff021916908373ffffffffffffffffffffffffffffffffffffffff16021790555060018060008573ffffffffffffffffffffffffffffffffffffffff1673ffffffffffffffffffffffffffffffffffffffff16815260200190815260200160002060006101000a81548160ff0219169083151502179055508273ffffffffffffffffffffffffffffffffffffffff168173ffffffffffffffffffffffffffffffffffffffff167ff10bad648d65a191bfb653141139d47499844ff40f3fa960b682a532d8399d3584604051620003d69190620008cf565b60405180910390a3505050565b61248480620008f483390190565b6000604051905090565b600080fd5b600080fd5b600073ffffffffffffffffffffffffffffffffffffffff82169050919050565b6000620004328262000405565b9050919050565b620004448162000425565b81146200045057600080fd5b50565b600081359050620004648162000439565b92915050565b600060208284031215620004835762000482620003fb565b5b6000620004938482850162000453565b91505092915050565b620004a78162000425565b82525050565b6000602082019050620004c460008301846200049c565b92915050565b6000819050919050565b6000620004f5620004ef620004e98462000405565b620004ca565b62000405565b9050919050565b60006200050982620004d4565b9050919050565b60006200051d82620004fc565b9050919050565b6200052f8162000510565b82525050565b60006020820190506200054c600083018462000524565b92915050565b60008115159050919050565b620005698162000552565b82525050565b60006020820190506200058660008301846200055e565b92915050565b600080fd5b600080fd5b6000601f19601f8301169050919050565b7f4e487b7100000000000000000000000000000000000000000000000000000000600052604160045260246000fd5b620005e18262000596565b810181811067ffffffffffffffff82111715620006035762000602620005a7565b5b80604052505050565b600062000618620003f1565b9050620006268282620005d6565b919050565b600067ffffffffffffffff821115620006495762000648620005a7565b5b620006548262000596565b9050602081019050919050565b82818337600083830152505050565b60006200068762000681846200062b565b6200060c565b905082815260208101848484011115620006a657620006a562000591565b5b620006b384828562000661565b509392505050565b600082601f830112620006d357620006d26200058c565b5b8135620006e584826020860162000670565b91505092915050565b60008060408385031215620007085762000707620003fb565b5b6000620007188582860162000453565b925050602083013567ffffffffffffffff8111156200073c576200073b62000400565b5b6200074a85828601620006bb565b9150509250929050565b600082825260208201905092915050565b7f54686973206d616e6167657220686173206120746f6b656e206c6f636b65722060008201527f616c72656164792120506c6561736520636f6e7369646572206c6f636b696e6760208201527f206d6f726520746f6b656e7320796f757220746f6b656e206c6f636b65722e00604082015250565b6000620007e9605f8362000754565b9150620007f68262000765565b606082019050919050565b600060208201905081810360008301526200081c81620007da565b9050919050565b600081519050919050565b60005b838110156200084e57808201518184015260208101905062000831565b60008484015250505050565b6000620008678262000823565b62000873818562000754565b9350620008858185602086016200082e565b620008908162000596565b840191505092915050565b6000604082019050620008b260008301856200049c565b8181036020830152620008c681846200085a565b90509392505050565b60006020820190508181036000830152620008eb81846200085a565b90509291505056fe60806040523480156200001157600080fd5b506040516200248438038062002484833981810160405281019062000037919062000289565b816000806101000a81548173ffffffffffffffffffffffffffffffffffffffff021916908373ffffffffffffffffffffffffffffffffffffffff16021790555080600190816200008891906200053a565b50505062000621565b6000604051905090565b600080fd5b600080fd5b600073ffffffffffffffffffffffffffffffffffffffff82169050919050565b6000620000d282620000a5565b9050919050565b620000e481620000c5565b8114620000f057600080fd5b50565b6000815190506200010481620000d9565b92915050565b600080fd5b600080fd5b6000601f19601f8301169050919050565b7f4e487b7100000000000000000000000000000000000000000000000000000000600052604160045260246000fd5b6200015f8262000114565b810181811067ffffffffffffffff8211171562000181576200018062000125565b5b80604052505050565b60006200019662000091565b9050620001a4828262000154565b919050565b600067ffffffffffffffff821115620001c757620001c662000125565b5b620001d28262000114565b9050602081019050919050565b60005b83811015620001ff578082015181840152602081019050620001e2565b60008484015250505050565b6000620002226200021c84620001a9565b6200018a565b9050828152602081018484840111156200024157620002406200010f565b5b6200024e848285620001df565b509392505050565b600082601f8301126200026e576200026d6200010a565b5b8151620002808482602086016200020b565b91505092915050565b60008060408385031215620002a357620002a26200009b565b5b6000620002b385828601620000f3565b925050602083015167ffffffffffffffff811115620002d757620002d6620000a0565b5b620002e58582860162000256565b9150509250929050565b600081519050919050565b7f4e487b7100000000000000000000000000000000000000000000000000000000600052602260045260246000fd5b600060028204905060018216806200034257607f821691505b602082108103620003585762000357620002fa565b5b50919050565b60008190508160005260206000209050919050565b60006020601f8301049050919050565b600082821b905092915050565b600060088302620003c27fffffffffffffffffffffffffffffffffffffffffffffffffffffffffffffffff8262000383565b620003ce868362000383565b95508019841693508086168417925050509392505050565b6000819050919050565b6000819050919050565b60006200041b620004156200040f84620003e6565b620003f0565b620003e6565b9050919050565b6000819050919050565b6200043783620003fa565b6200044f620004468262000422565b84845462000390565b825550505050565b600090565b6200046662000457565b620004738184846200042c565b505050565b5b818110156200049b576200048f6000826200045c565b60018101905062000479565b5050565b601f821115620004ea57620004b4816200035e565b620004bf8462000373565b81016020851015620004cf578190505b620004e7620004de8562000373565b83018262000478565b50505b505050565b600082821c905092915050565b60006200050f60001984600802620004ef565b1980831691505092915050565b60006200052a8383620004fc565b9150826002028217905092915050565b6200054582620002ef565b67ffffffffffffffff81111562000561576200056062000125565b5b6200056d825462000329565b6200057a8282856200049f565b600060209050601f831160018114620005b257600084156200059d578287015190505b620005a985826200051c565b86555062000619565b601f198416620005c2866200035e565b60005b82811015620005ec57848901518255600182019150602085019450602081019050620005c5565b868310156200060c578489015162000608601f891682620004fc565b8355505b6001600288020188555050505b505050505050565b611e5380620006316000396000f3fe608060405234801561001057600080fd5b50600436106100885760003560e01c806377b76ec31161005b57806377b76ec3146101155780637b23a9a2146101455780638fa633a414610161578063dcec32941461017f57610088565b80631a197a261461008d5780633317bbcc146100bd57806337bdc99b146100db578063481c6a75146100f7575b600080fd5b6100a760048036038101906100a29190610eb0565b6101b5565b6040516100b49190610ef6565b60405180910390f35b6100c561023f565b6040516100d291906111a9565b60405180910390f35b6100f560048036038101906100f091906111f7565b610415565b005b6100ff6106e1565b60405161010c9190611233565b60405180910390f35b61012f600480360381019061012a919061124e565b610705565b60405161013c9190610ef6565b60405180910390f35b61015f600480360381019061015a91906113ef565b61078e565b005b610169610c89565b60405161017691906114d0565b60405180910390f35b610199600480360381019061019491906111f7565b610d17565b6040516101ac979695949392919061151f565b60405180910390f35b6000808290508073ffffffffffffffffffffffffffffffffffffffff1663dd62ed3e33306040518363ffffffff1660e01b81526004016101f6929190611595565b602060405180830381865afa158015610213573d6000803e3d6000fd5b505050506040513d601f19601f8201168201806040525081019061023791906115d3565b915050919050565b60606002805480602002602001604051908101604052809291908181526020016000905b8282101561040c57838290600052602060002090600702016040518060e00160405290816000820160009054906101000a900473ffffffffffffffffffffffffffffffffffffffff1673ffffffffffffffffffffffffffffffffffffffff1673ffffffffffffffffffffffffffffffffffffffff1681526020016001820160009054906101000a900473ffffffffffffffffffffffffffffffffffffffff1673ffffffffffffffffffffffffffffffffffffffff1673ffffffffffffffffffffffffffffffffffffffff1681526020016002820154815260200160038201548152602001600482015481526020016005820180546103609061162f565b80601f016020809104026020016040519081016040528092919081815260200182805461038c9061162f565b80156103d95780601f106103ae576101008083540402835291602001916103d9565b820191906000526020600020905b8154815290600101906020018083116103bc57829003601f168201915b505050505081526020016006820160009054906101000a900460ff16151515158152505081526020019060010190610263565b50505050905090565b60008054906101000a900473ffffffffffffffffffffffffffffffffffffffff1673ffffffffffffffffffffffffffffffffffffffff163373ffffffffffffffffffffffffffffffffffffffff16146104a3576040517f08c379a000000000000000000000000000000000000000000000000000000000815260040161049a906116d2565b60405180910390fd5b6000600282815481106104b9576104b86116f2565b5b906000526020600020906007020190508060040154421015610510576040517f08c379a000000000000000000000000000000000000000000000000000000000815260040161050790611793565b60405180910390fd5b6000816002015411610557576040517f08c379a000000000000000000000000000000000000000000000000000000000815260040161054e906117ff565b60405180910390fd5b8060000160009054906101000a900473ffffffffffffffffffffffffffffffffffffffff1673ffffffffffffffffffffffffffffffffffffffff1663a9059cbb8260010160009054906101000a900473ffffffffffffffffffffffffffffffffffffffff1683600201546040518363ffffffff1660e01b81526004016105de929190611840565b6020604051808303816000875af11580156105fd573d6000803e3d6000fd5b505050506040513d601f19601f820116820180604052508101906106219190611895565b5060018160060160006101000a81548160ff0219169083151502179055508060010160009054906101000a900473ffffffffffffffffffffffffffffffffffffffff1673ffffffffffffffffffffffffffffffffffffffff163373ffffffffffffffffffffffffffffffffffffffff167f996053503a884bfbb5ac64648424e9696a5e7a5a65667fa9d5126e1f7100b88d836002015484600501856004015486600301546040516106d5949392919061195b565b60405180910390a35050565b60008054906101000a900473ffffffffffffffffffffffffffffffffffffffff1681565b6000808390508073ffffffffffffffffffffffffffffffffffffffff166370a08231846040518263ffffffff1660e01b81526004016107449190611233565b602060405180830381865afa158015610761573d6000803e3d6000fd5b505050506040513d601f19601f8201168201806040525081019061078591906115d3565b91505092915050565b60008054906101000a900473ffffffffffffffffffffffffffffffffffffffff1673ffffffffffffffffffffffffffffffffffffffff163373ffffffffffffffffffffffffffffffffffffffff161461081c576040517f08c379a0000000000000000000000000000000000000000000000000000000008152600401610813906116d2565b60405180910390fd5b6000831161085f576040517f08c379a0000000000000000000000000000000000000000000000000000000008152600401610856906119f3565b60405180910390fd5b600085905060008173ffffffffffffffffffffffffffffffffffffffff1663dd62ed3e33306040518363ffffffff1660e01b81526004016108a1929190611595565b602060405180830381865afa1580156108be573d6000803e3d6000fd5b505050506040513d601f19601f820116820180604052508101906108e291906115d3565b905084811015610927576040517f08c379a000000000000000000000000000000000000000000000000000000000815260040161091e90611a5f565b60405180910390fd5b60008273ffffffffffffffffffffffffffffffffffffffff166370a08231336040518263ffffffff1660e01b81526004016109629190611233565b602060405180830381865afa15801561097f573d6000803e3d6000fd5b505050506040513d601f19601f820116820180604052508101906109a391906115d3565b9050858110156109e8576040517f08c379a00000000000000000000000000000000000000000000000000000000081526004016109df90611acb565b60405180910390fd5b8273ffffffffffffffffffffffffffffffffffffffff166323b872dd3330896040518463ffffffff1660e01b8152600401610a2593929190611aeb565b6020604051808303816000875af1158015610a44573d6000803e3d6000fd5b505050506040513d601f19601f82011682018060405250810190610a689190611895565b610aa7576040517f08c379a0000000000000000000000000000000000000000000000000000000008152600401610a9e90611b6e565b60405180910390fd5b60026040518060e001604052808573ffffffffffffffffffffffffffffffffffffffff1681526020018973ffffffffffffffffffffffffffffffffffffffff16815260200188815260200142815260200187815260200186815260200160001515815250908060018154018082558091505060019003906000526020600020906007020160009091909190915060008201518160000160006101000a81548173ffffffffffffffffffffffffffffffffffffffff021916908373ffffffffffffffffffffffffffffffffffffffff16021790555060208201518160010160006101000a81548173ffffffffffffffffffffffffffffffffffffffff021916908373ffffffffffffffffffffffffffffffffffffffff16021790555060408201518160020155606082015181600301556080820151816004015560a0820151816005019081610bf59190611d1b565b5060c08201518160060160006101000a81548160ff02191690831515021790555050508673ffffffffffffffffffffffffffffffffffffffff163373ffffffffffffffffffffffffffffffffffffffff167f255e2efb6c58823c300a9a0b6b7edbddcfd2f4ab39c4e4b98544164d6a7210ad8887604051610c77929190611ded565b60405180910390a35050505050505050565b60018054610c969061162f565b80601f0160208091040260200160405190810160405280929190818152602001828054610cc29061162f565b8015610d0f5780601f10610ce457610100808354040283529160200191610d0f565b820191906000526020600020905b815481529060010190602001808311610cf257829003601f168201915b505050505081565b60028181548110610d2757600080fd5b90600052602060002090600702016000915090508060000160009054906101000a900473ffffffffffffffffffffffffffffffffffffffff16908060010160009054906101000a900473ffffffffffffffffffffffffffffffffffffffff1690806002015490806003015490806004015490806005018054610da89061162f565b80601f0160208091040260200160405190810160405280929190818152602001828054610dd49061162f565b8015610e215780601f10610df657610100808354040283529160200191610e21565b820191906000526020600020905b815481529060010190602001808311610e0457829003601f168201915b5050505050908060060160009054906101000a900460ff16905087565b6000604051905090565b600080fd5b600080fd5b600073ffffffffffffffffffffffffffffffffffffffff82169050919050565b6000610e7d82610e52565b9050919050565b610e8d81610e72565b8114610e9857600080fd5b50565b600081359050610eaa81610e84565b92915050565b600060208284031215610ec657610ec5610e48565b5b6000610ed484828501610e9b565b91505092915050565b6000819050919050565b610ef081610edd565b82525050565b6000602082019050610f0b6000830184610ee7565b92915050565b600081519050919050565b600082825260208201905092915050565b6000819050602082019050919050565b6000819050919050565b6000610f62610f5d610f5884610e52565b610f3d565b610e52565b9050919050565b6000610f7482610f47565b9050919050565b6000610f8682610f69565b9050919050565b610f9681610f7b565b82525050565b6000610fa782610e52565b9050919050565b610fb781610f9c565b82525050565b610fc681610edd565b82525050565b600081519050919050565b600082825260208201905092915050565b60005b83811015611006578082015181840152602081019050610feb565b60008484015250505050565b6000601f19601f8301169050919050565b600061102e82610fcc565b6110388185610fd7565b9350611048818560208601610fe8565b61105181611012565b840191505092915050565b60008115159050919050565b6110718161105c565b82525050565b600060e08301600083015161108f6000860182610f8d565b5060208301516110a26020860182610fae565b5060408301516110b56040860182610fbd565b5060608301516110c86060860182610fbd565b5060808301516110db6080860182610fbd565b5060a083015184820360a08601526110f38282611023565b91505060c083015161110860c0860182611068565b508091505092915050565b600061111f8383611077565b905092915050565b6000602082019050919050565b600061113f82610f11565b6111498185610f1c565b93508360208202850161115b85610f2d565b8060005b8581101561119757848403895281516111788582611113565b945061118383611127565b925060208a0199505060018101905061115f565b50829750879550505050505092915050565b600060208201905081810360008301526111c38184611134565b905092915050565b6111d481610edd565b81146111df57600080fd5b50565b6000813590506111f1816111cb565b92915050565b60006020828403121561120d5761120c610e48565b5b600061121b848285016111e2565b91505092915050565b61122d81610e72565b82525050565b60006020820190506112486000830184611224565b92915050565b6000806040838503121561126557611264610e48565b5b600061127385828601610e9b565b925050602061128485828601610e9b565b9150509250929050565b61129781610f9c565b81146112a257600080fd5b50565b6000813590506112b48161128e565b92915050565b600080fd5b600080fd5b7f4e487b7100000000000000000000000000000000000000000000000000000000600052604160045260246000fd5b6112fc82611012565b810181811067ffffffffffffffff8211171561131b5761131a6112c4565b5b80604052505050565b600061132e610e3e565b905061133a82826112f3565b919050565b600067ffffffffffffffff82111561135a576113596112c4565b5b61136382611012565b9050602081019050919050565b82818337600083830152505050565b600061139261138d8461133f565b611324565b9050828152602081018484840111156113ae576113ad6112bf565b5b6113b9848285611370565b509392505050565b600082601f8301126113d6576113d56112ba565b5b81356113e684826020860161137f565b91505092915050565b600080600080600060a0868803121561140b5761140a610e48565b5b600061141988828901610e9b565b955050602061142a888289016112a5565b945050604061143b888289016111e2565b935050606061144c888289016111e2565b925050608086013567ffffffffffffffff81111561146d5761146c610e4d565b5b611479888289016113c1565b9150509295509295909350565b600082825260208201905092915050565b60006114a282610fcc565b6114ac8185611486565b93506114bc818560208601610fe8565b6114c581611012565b840191505092915050565b600060208201905081810360008301526114ea8184611497565b905092915050565b6114fb81610f7b565b82525050565b61150a81610f9c565b82525050565b6115198161105c565b82525050565b600060e082019050611534600083018a6114f2565b6115416020830189611501565b61154e6040830188610ee7565b61155b6060830187610ee7565b6115686080830186610ee7565b81810360a083015261157a8185611497565b905061158960c0830184611510565b98975050505050505050565b60006040820190506115aa6000830185611224565b6115b76020830184611224565b9392505050565b6000815190506115cd816111cb565b92915050565b6000602082840312156115e9576115e8610e48565b5b60006115f7848285016115be565b91505092915050565b7f4e487b7100000000000000000000000000000000000000000000000000000000600052602260045260246000fd5b6000600282049050600182168061164757607f821691505b60208210810361165a57611659611600565b5b50919050565b7f546865206d616e61676572206973206e6f74206d616b696e672074686973206360008201527f616c6c0000000000000000000000000000000000000000000000000000000000602082015250565b60006116bc602383611486565b91506116c782611660565b604082019050919050565b600060208201905081810360008301526116eb816116af565b9050919050565b7f4e487b7100000000000000000000000000000000000000000000000000000000600052603260045260246000fd5b7f52656c656173652074696d6520686173206e6f7420617272697665642079657460008201527f2100000000000000000000000000000000000000000000000000000000000000602082015250565b600061177d602183611486565b915061178882611721565b604082019050919050565b600060208201905081810360008301526117ac81611770565b9050919050565b7f4e6f20746f6b656e7320746f2072656c65617365210000000000000000000000600082015250565b60006117e9601583611486565b91506117f4826117b3565b602082019050919050565b60006020820190508181036000830152611818816117dc565b9050919050565b600061182a82610f69565b9050919050565b61183a8161181f565b82525050565b60006040820190506118556000830185611831565b6118626020830184610ee7565b9392505050565b6118728161105c565b811461187d57600080fd5b50565b60008151905061188f81611869565b92915050565b6000602082840312156118ab576118aa610e48565b5b60006118b984828501611880565b91505092915050565b60008190508160005260206000209050919050565b600081546118e48161162f565b6118ee8186611486565b94506001821660008114611909576001811461191f57611952565b60ff198316865281151560200286019350611952565b611928856118c2565b60005b8381101561194a5781548189015260018201915060208101905061192b565b808801955050505b50505092915050565b60006080820190506119706000830187610ee7565b818103602083015261198281866118d7565b90506119916040830185610ee7565b61199e6060830184610ee7565b95945050505050565b7f496e76616c696420616d6f756e74210000000000000000000000000000000000600082015250565b60006119dd600f83611486565b91506119e8826119a7565b602082019050919050565b60006020820190508181036000830152611a0c816119d0565b9050919050565b7f546f6b656e20616c6c6f77616e636520746f6f206c6f77000000000000000000600082015250565b6000611a49601783611486565b9150611a5482611a13565b602082019050919050565b60006020820190508181036000830152611a7881611a3c565b9050919050565b7f496e73756666696369656e742062616c616e6365000000000000000000000000600082015250565b6000611ab5601483611486565b9150611ac082611a7f565b602082019050919050565b60006020820190508181036000830152611ae481611aa8565b9050919050565b6000606082019050611b006000830186611224565b611b0d6020830185611224565b611b1a6040830184610ee7565b949350505050565b7f546f6b656e207472616e73616374696f6e206661696c65642100000000000000600082015250565b6000611b58601983611486565b9150611b6382611b22565b602082019050919050565b60006020820190508181036000830152611b8781611b4b565b9050919050565b60006020601f8301049050919050565b600082821b905092915050565b600060088302611bdb7fffffffffffffffffffffffffffffffffffffffffffffffffffffffffffffffff82611b9e565b611be58683611b9e565b95508019841693508086168417925050509392505050565b6000611c18611c13611c0e84610edd565b610f3d565b610edd565b9050919050565b6000819050919050565b611c3283611bfd565b611c46611c3e82611c1f565b848454611bab565b825550505050565b600090565b611c5b611c4e565b611c66818484611c29565b505050565b5b81811015611c8a57611c7f600082611c53565b600181019050611c6c565b5050565b601f821115611ccf57611ca0816118c2565b611ca984611b8e565b81016020851015611cb8578190505b611ccc611cc485611b8e565b830182611c6b565b50505b505050565b600082821c905092915050565b6000611cf260001984600802611cd4565b1980831691505092915050565b6000611d0b8383611ce1565b9150826002028217905092915050565b611d2482610fcc565b67ffffffffffffffff811115611d3d57611d3c6112c4565b5b611d47825461162f565b611d52828285611c8e565b600060209050601f831160018114611d855760008415611d73578287015190505b611d7d8582611cff565b865550611de5565b601f198416611d93866118c2565b60005b82811015611dbb57848901518255600182019150602085019450602081019050611d96565b86831015611dd85784890151611dd4601f891682611ce1565b8355505b6001600288020188555050505b505050505050565b6000604082019050611e026000830185610ee7565b8181036020830152611e148184611497565b9050939250505056fea2646970667358221220b76d6bc6a28e68e1aa1dcf7ee5844267c5ce4d163ab5b7416dfcad2f5f2623ad64736f6c63430008130033a26469706673582212206cbadee89cf941b45d1849934c07982a4743fec720f319c0bdeb5bc37daf8d4764736f6c63430008130033",
  "immutableReferences": {},
  "source": "// SPDX-License-Identifier: MIT\r\npragma solidity >=0.4.25 <0.9.0;\r\n\r\n// OpenZeppelin Contracts (last updated v5.0.0) (token/ERC20/IERC20.sol)\r\nimport \"@openzeppelin/contracts/token/ERC20/ERC20.sol\";\r\n\r\ncontract TokenLockerFactory {\r\n    // address[] public deployedTokenLoackers;\r\n    mapping(address => TokenLocker) public deployedTokenLockers;\r\n    mapping(address => bool) public hasCreatorATokenLocker;\r\n \r\n    // Event declaration for TokenLocker creation\r\n    event TokenLockerCreated(\r\n        address indexed tokenLocker,\r\n        address indexed creator,\r\n        string lockerName\r\n    );\r\n\r\n    // Function to create a new TokenLocker contract\r\n    function createTokenLocker(address creator, string memory name) external {\r\n        require(\r\n            !hasCreatorATokenLocker[creator],\r\n            \"This manager has a token locker already! Please consider locking more tokens your token locker.\"\r\n        );\r\n        // Deploy a new instance of TokenLocker contract\r\n        TokenLocker newTokenLocker = new TokenLocker(creator, name);\r\n        deployedTokenLockers[creator] = newTokenLocker;\r\n\r\n        hasCreatorATokenLocker[creator] = true; // Same manager shouldn't create another Token locker\r\n\r\n        // Emit an event to log the creation of a new TokenLocker contract\r\n        emit TokenLockerCreated(address(newTokenLocker), creator, name);\r\n    }\r\n\r\n    function getDeployedTokenLocker(\r\n        address creator\r\n    ) public view returns (address) {\r\n        return address(deployedTokenLockers[creator]);\r\n    }\r\n}\r\n\r\ncontract TokenLocker {\r\n    struct LockedToken {\r\n        IERC20 token;\r\n        address payable beneficiary;\r\n        uint256 amount;\r\n        uint256 lockdownDate;\r\n        uint256 lockdownPeriod;\r\n        string title;\r\n        bool isReleased;\r\n    }\r\n\r\n    address public manager;\r\n    string public lockerName;\r\n    LockedToken[] public lockedTokens;\r\n\r\n    event TokensDeposited(\r\n        address indexed depositor,\r\n        address indexed beneficiary,\r\n        uint256 amount,\r\n        string title\r\n    );\r\n\r\n    event TokensReleased(\r\n        address indexed depositor,\r\n        address indexed beneficiary,\r\n        uint256 amount,\r\n        string title,\r\n        uint period,\r\n        uint lockdownDate\r\n    );\r\n\r\n    event TokenTransferApproved(\r\n        bool isApproved,\r\n        address spender,\r\n        uint256 amount\r\n    );\r\n\r\n    modifier restricted() {\r\n        require(msg.sender == manager, \"The manager is not making this call\");\r\n        _;\r\n    }\r\n\r\n    constructor(address creator, string memory name) {\r\n        manager = creator;\r\n        lockerName = name;\r\n    }\r\n\r\n    // This doesn't show allowance after approval ???\r\n    function checkAllowance(\r\n        address tokenAddress\r\n    ) public view returns (uint256) {\r\n        IERC20 token = IERC20(tokenAddress);\r\n        return token.allowance(address(msg.sender), address(this));\r\n    }\r\n\r\n    // This works well\r\n    function checkBalance(\r\n        address tokenAddress,\r\n        address account\r\n    ) public view returns (uint256) {\r\n        IERC20 token = IERC20(tokenAddress);\r\n        return token.balanceOf(account);\r\n    }\r\n\r\n    function deposit(\r\n        address tokenAddress,\r\n        address payable beneficiary,\r\n        uint amount,\r\n        uint lockdownPeriod,\r\n        string memory title\r\n    ) public restricted {\r\n        require(amount > 0, \"Invalid amount!\");\r\n\r\n        IERC20 token = IERC20(tokenAddress);\r\n\r\n        // Check allowance first\r\n        uint allowance = token.allowance(address(msg.sender), address(this));\r\n        require(allowance >= amount, \"Token allowance too low\");\r\n\r\n        // Check user balance\r\n        uint userBalance = token.balanceOf(address(msg.sender));\r\n        require(userBalance >= amount, \"Insufficient balance\");\r\n\r\n        // Transfer tokens after approval and balance checks\r\n        require(\r\n            token.transferFrom(address(msg.sender), address(this), amount),\r\n            \"Token transaction failed!\"\r\n        ); // Tries to deposit\r\n\r\n        // If deposit is successful...\r\n\r\n        // Lock down the tokens\r\n        lockedTokens.push(\r\n            LockedToken({\r\n                token: token,\r\n                beneficiary: beneficiary,\r\n                amount: amount,\r\n                lockdownDate: block.timestamp,\r\n                lockdownPeriod: lockdownPeriod,\r\n                title: title,\r\n                isReleased: false\r\n            })\r\n        );\r\n\r\n        emit TokensDeposited(msg.sender, beneficiary, amount, title); // Emit event\r\n    }\r\n\r\n    function release(uint index) public restricted {\r\n        LockedToken storage lockedToken = lockedTokens[index];\r\n\r\n        require(\r\n            block.timestamp >= lockedToken.lockdownPeriod,\r\n            \"Release time has not arrived yet!\"\r\n        );\r\n\r\n        // uint256 amount = lockedToken.token.balanceOf(address(this));\r\n        // uint256 amount = lockedToken.token.balanceOf(address(this));\r\n    require(lockedToken.amount > 0, \"No tokens to release!\");\r\n        lockedToken.token.transfer(lockedToken.beneficiary, lockedToken.amount);\r\n\r\n        // Update the status of the locked token\r\n        lockedToken.isReleased = true;\r\n\r\n        emit TokensReleased(\r\n            msg.sender,\r\n            lockedToken.beneficiary,\r\n            lockedToken.amount,\r\n            lockedToken.title,\r\n            lockedToken.lockdownPeriod,\r\n            lockedToken.lockdownDate\r\n        );\r\n    }\r\n\r\n    function getLockedTokens() public view returns (LockedToken[] memory) {\r\n        return lockedTokens;\r\n    }\r\n}\r\n",
  "sourcePath": "c:\\Users\\SOFT\\SOFT_DEV\\WEB3-PROJECTS\\tokenlocker\\tokenlocker\\contracts\\TokenLocker.sol",
  "compiler": {
    "name": "solc",
    "version": "0.8.19+commit.7dd6d404.Emscripten.clang"
  },
  "schemaVersion": "3.4.16",
  "updatedAt": "2024-01-15T23:15:47.374Z",
  "networkType": "ethereum",
  "devdoc": {
    "kind": "dev",
    "methods": {},
    "version": 1
  },
  "userdoc": {
    "kind": "user",
    "methods": {},
    "version": 1
  }
}